:1000000000C0032061020000B9020000493A00006C
:10001000BD020000BF020000C1020000C3020000D8
:10002000000000000000000000000000C502000009
:10003000C702000000000000C9020000CB0200005F
:100040001136000019360000213600002936000064
:1000500031360000393600004136000049360000D4
:100060005136000059360000613600006936000044
:1000700071360000793600008136000089360000B4
:100080009136000099360000A1360000A936000024
:10009000B1360000B9360000C1360000C936000094
:1000A000D1360000D9360000E1360000E936000004
:1000B000F1360000F9360000013700000937000072
:1000C00011370000193700002137000029370000E0
:1000D0003137000039370000413700004937000050
:1000E00051370000593700006137000069370000C0
:1000F0007137000079370000813700008937000030
:100100009137000099370000A1370000A93700009F
:10011000B1370000B9370000C1370000C93700000F
:10012000D1370000D9370000E1370000E93700007F
:10013000F1370000F93700000138000009380000ED
:10014000113800001938000021380000293800005B
:1001500031380000393800004138000049380000CB
:10016000513800005938000061380000693800003B
:1001700071380000793800008138000089380000AB
:100180009138000099380000A1380000A93800001B
:10019000B1380000B9380000C1380000C93800008B
:1001A000D1380000D9380000E1380000E9380000FB
:1001B000F1380000F9380000013900000939000069
:1001C00011390000193900002139000029390000D7
:1001D0003139000039390000413900004939000047
:1001E00051390000593900006139000069390000B7
:1001F0007139000079390000813900008939000027
:100200009139000099390000A1390000A939000096
:10021000B1390000B9390000C1390000C939000006
:10022000D1390000B44E0000000000203000000072
:10023000B44E00000020000400000000B44E000096
:100240000000000400000000300000208C010000CD
:100250000020000400000000000000040000000076
:1002600072B6054B054A06480360196881F3088891
:1002700082F30A88034880470000000000B0032092
:1002800008ED00E0C9030000002393420AD210B435
:1002900050F8044B41F8044B04339342F8D35DF813
:1002A000044B70477047002303E0002240F8042B02
:1002B00004338B42F9D37047FEE7FEE7FEE7FEE723
:1002C000FEE7FEE7FEE7FEE7FEE7FEE7FEE7FFFFED
:1002D00080B584B000AF786039607B68002BFCD0BB
:1002E0003B68002B01D1002313E00C4B1B68002B53
:1002F00001D100230DE03A687968094803F066FEF1
:100300000346FB81FB89002B01D13B6801E04FF0E4
:10031000FF3318461037BD4680BD00BF5400002093
:100320004C00002080B5A4B000AF78603960002395
:10033000C7F888300023C7F88C3007F10803802203
:100340000021184603F01FFF0E4B1B68002B12D034
:1003500007F108020C4B3968786802F0A5FFC7F86E
:100360008800D7F8882007F1080311461846FFF7E0
:10037000AFFFC7F88C00D7F88C3018469037BD46D1
:1003800080BD00BF540000206535000080B584B0FA
:1003900000AF78600023FB604FF0FF33BB607968EB
:1003A000074803F012F9BA68F968786803F023F98E
:1003B000044B1B6803F00103012BF9D100BEF7E7E2
:1003C000B8440000F0ED00E010B502F02BF80E4B41
:1003D00007E003F10C049A6859681868FFF754FFA6
:1003E00023460A4A9342F4D306E01C46596854F85F
:1003F000080BFFF758FF2346054A9342F5D362B630
:1004000003F0B8FEFEE700BF24020000480200002F
:100410006002000080B500AF03F0A6FE03F002FE0C
:1004200003F070FE01221521064803F0D5FA4FF4BF
:100430000061054803F0EBFA034803F0F8FA00BF47
:10044000F0E700BF0040104000400B4080B400AF18
:10045000074BD3F8003603F08073002B14BF012341
:100460000023DBB21846BD465DF8047B704700BF31
:1004700000F0084080B584B000AF03463960FB80CF
:10048000FB8803F1804303F51123FB60FB88B3F580
:10049000007F02D91A48FFF779FFFB88B3F5007F88
:1004A00015D1184B5B6923F0E0623B681B0603F033
:1004B000E063144913434B6100BF124B1A693B6858
:1004C0001B06534003F0E063002BF6D112E00E4B05
:1004D000D3F8FC330C4A23F00103C2F8FC33FB6869
:1004E0003A681A60084BD3F8FC33074A43F001031B
:1004F000C2F8FC33002318461037BD4680BD00BF4C
:10050000CC44000000F008400010094080B584B0E1
:1005100000AF03463960FB80FB8803F1804303F59D
:100520001123FB60FB88B3F5797F02D92748FFF7D9
:100530002DFF3B68002B0CD0FB681B6803F0804349
:10054000002B06D1FB681B68DAB23B68013B9A427C
:1005500038D01F4BD3F8FC331D4A23F00103C2F8F7
:10056000FC33FB88B3F5607F09D13B68002B02D0D8
:100570003B68013B00E00023FA68136019E0FB6868
:100580004FF0C0421A603B68002B06D1FB681B6825
:1005900043F08042FB681A600BE03B68013B43F08C
:1005A0008042FB681A60FB681B6823F08042FB688E
:1005B0001A60074BD3F8FC33054A43F00103C2F835
:1005C000FC3300E000BF1037BD4680BDF84400009A
:1005D0000010094080B584B000AF78600023FB7341
:1005E0000023BB730023BB607B684D4A934226D037
:1005F0007B684B4A934228D87B684A4A934218D07A
:100600007B68484A934220D87B68474A934204D08B
:100610007B68464A934206D017E00123FB73444BA4
:100620001B68BB6014E00323FB73414B1B68BB607A
:100630000EE00523FB733E4B1B68BB6008E00723FD
:10064000FB733B4B1B68BB6002E00F23FB7300BFD7
:10065000FB7B0F2B01D101235DE0BB68B3F1FF3FB2
:1006600001D1012357E0334B1B691B0E03F0070335
:10067000032B04D10123BB732F4803F000FA2D4B49
:10068000D3F81033BA689A4209D02A4B2B4A9A60A1
:10069000284ABB68C2F81033264B294A9A60FB7B74
:1006A0005B00244A03F00E03C2F80833214BD3F851
:1006B0000033204A23F40003C2F800331D4BD3F863
:1006C00000331C4A43F01003C2F80033194BD3F82F
:1006D0000033184A43F02003C2F80033154BD3F817
:1006E0000033144A43F00103C2F80033114BD3F82E
:1006F0000033104A43F40003C2F8003300BF0D4B2F
:10070000D3F80033002BFADABB7B012B02D10D4862
:1007100003F0B5F9002318461037BD4680BD00BF71
:100720000095BA0A804A5D0540A5AE020087930392
:100730007008100100F008400200000201005A5A3F
:1007400000005A5A0300000280B400AF164BD3F8E1
:100750000032154A23F40003C2F80032124BD3F8DA
:100760000032114A43F02003C2F800320E4BD3F896
:1007700000320D4A43F40003C2F8003200BF0A4BB6
:10078000D3F8003203F08073002BF8D0074BD3F876
:100790008C33064A23F08043C2F88C33002318467A
:1007A000BD465DF8047B704700F00840001009402A
:1007B00080B400AF074BD3F8003203F02003002BC6
:1007C00001D0054B00E000231846BD465DF8047BD0
:1007D000704700BF00F00840001BB70080B483B032
:1007E00000AF244BD3F8003303F00103002B06D0F5
:1007F000204BD3F8003303F00503002B01D1002375
:10080000FB711C4BD3F808335B0803F00703013B73
:10081000062B1DD801A252F823F000BF39080000B2
:10082000510800003F080000510800004508000082
:10083000510800004B0800000423FB710BE0032368
:10084000FB7108E00223FB7105E00123FB7102E06C
:100850000023FB7100BFFB79002B04D0FB79064A13
:10086000B2FBF3F300E0002318460C37BD465DF8F9
:10087000047B704700F008400095BA0A80B400AFCE
:10088000074BD3F8003303F01003002B01D10023F2
:1008900000E0044B1846BD465DF8047B704700BF7E
:1008A00000F0084040A5AE0280B483B000AF03461C
:1008B000FB710E4BD3F8003203F00103002B0ED076
:1008C0000A4BD3F82022FB79012101FA03F31340EC
:1008D00003F00303002B02D04FF47A5300E000230F
:1008E00018460C37BD465DF8047B70470030094060
:1008F00080B400AF074BD3F8003103F08073002BB6
:1009000002D0054B1B6800E000231846BD465DF889
:10091000047B704700F008400000002080B582B0E2
:1009200000AF00237B601A4B1B691B0E03F007030B
:10093000013B052B23D801A252F823F055090000F2
:100940005D090000650900006D0900007F090000D5
:1009500077090000FFF7CCFF786013E0FFF728FF6E
:1009600078600FE0FFF73AFF78600BE00120FFF7B7
:100970009BFF786006E003F09AF8786002E00023BD
:100980007B6000BF7B6818460837BD4680BD00BF4E
:1009900000F0084080B500AFFFF7C0FF0246044BEF
:1009A000D3F88033DBB20133B2FBF3F3184680BDDA
:1009B0000010094080B582B000AF00237B60114B6E
:1009C000D3F804365B0E03F00303032B0ED0032B86
:1009D00010D8002B02D0012B04D00BE0FFF788FFCA
:1009E00078600AE0FFF74AFF786006E0FFF7E0FE74
:1009F000786002E000237B6000BF7B681846083700
:100A0000BD4680BD00F0084080B483B000AF012334
:100A10007B600C4BD3F8043603F40023002B09D180
:100A2000084BD3F80C36DBB27B607B68002B01D11E
:100A300001237B607B6818460C37BD465DF8047B5C
:100A4000704700BF00F0084080B483B000AF0123BE
:100A50007B60144BD3F8043603F48013002B19D1B8
:100A6000104BD3F8043603F48033002B06D00D4B23
:100A7000D3F8143603F01F037B6006E0094BD3F86C
:100A8000143603F01F035B007B607B68002B01D1F1
:100A900002237B607B6818460C37BD465DF8047BFB
:100AA000704700BF00F0084080B584B000AF4FF041
:100AB0007E53FB60254BD3F8283603F40063002BEC
:100AC0000AD1224BD3F810369BB207EE903AF8EEDB
:100AD000677AC7ED037A27E01C4BD3F82836DB0191
:100AE00003F08003BB60194BD3F824365B0EBA6861
:100AF0001343BB60154BD3F8243623F07E4307EE37
:100B0000903AB8EE677ADFED126AC7EE267AC7ED43
:100B1000017ABB6807EE903AF8EE677A97ED017AB2
:100B200077EE277AC7ED037AF86803F05FFC024698
:100B30000B46134302D14FF07E53FB60FB6807EE78
:100B4000903AB0EE670A1037BD4680BD00F008400D
:100B50000000004C80B487B000AF78607B68B3F1D0
:100B6000FF3F44D07B681B0C7B617B689BB23B6181
:100B70007A69224B1344FB60214BD3F8FC33204AA3
:100B800023F00103C2F8FC337B69FA2B0FD11C4B15
:100B9000D3F8382901213B6901FA03F318491343BB
:100BA000C1F83839164B4FF000425A6416E07B69A1
:100BB000F02B0ED1124BD3F83C2901213B6901FAED
:100BC00003F30F491343C1F83C390D4B01225A6519
:100BD00004E001223B699A40FB681A60084BD3F895
:100BE000FC33074A43F00103C2F8FC3300E000BFC6
:100BF0001C37BD465DF8047B704700BF44100940B8
:100C00000010094080B584B000AF78600023FB601D
:100C100006E00B4A7B68934206D0FB680133FB6019
:100C2000FB68002BF5D000E000BFFB68002B02D072
:100C30000448FFF7ABFBFB6818461037BD4680BD84
:100C400000400B402445000080B584B000AF7860C0
:100C500039603B68002B02D14B48FFF797FB00231C
:100C6000FB607868FFF7CEFF484B1846FFF772FF2E
:100C70007868FFF7C7FF40F20713184602F058FFE5
:100C80000121786802F061FF0121786802F06EFFAF
:100C90000221786802F059FF0221786802F066FFAD
:100CA0003B681B79012B03D1FB6843F02003FB60F9
:100CB0003B685B79013B032B30D801A252F823F04B
:100CC000D10C0000DB0C0000E50C0000010D000061
:100CD000FB6843F00803FB6021E0FB6843F0180366
:100CE000FB601CE0FB6843F04803FB603B689B68CB
:100CF0009AB23B68DB681B041A437B68DA620EE039
:100D0000FB6843F05803FB603B689B689AB23B6802
:100D1000DB681B041A437B68DA6200E000BF3B68B3
:100D2000DB7983F00103DBB2002B03D0FB6843F4D3
:100D30000003FB603B689B79002B03D0FB6843F406
:100D40000033FB603B681B691B0203F47063FA68A5
:100D50001343FB603B685B69FA681343FB603B68C5
:100D60001B7E5B0003F00603FA681343FB607B689D
:100D7000FA68DA603B681B6803F00F027B681A614F
:100D800000BF1037BD4680BD584500000700100069
:100D900080B483B000AF0346FB7197F90730002B96
:100DA0000BDBFB7903F01F02074997F907305B095A
:100DB000012000FA02F241F8232000BF0C37BD46A3
:100DC0005DF8047B704700BF00E100E080B487B0AD
:100DD00000AF78607B68B3F1FF3F44D07B681B0CA9
:100DE0007B617B689BB23B617A69224B1344FB6059
:100DF000214BD3F8FC33204A23F00103C2F8FC3323
:100E00007B69FA2B0FD11C4BD3F8382901213B69A0
:100E100001FA03F318491343C1F83839164B4FF060
:100E200000425A6416E07B69F02B0ED1124BD3F8C6
:100E30003C2901213B6901FA03F30F491343C1F82F
:100E40003C390D4B01225A6504E001223B699A406E
:100E5000FB681A60084BD3F8FC33074A43F00103E0
:100E6000C2F8FC3300E000BF1C37BD465DF8047BD0
:100E7000704700BF441009400010094080B584B09D
:100E800000AFF860B9607A60BB68072B02D90D48E3
:100E9000FFF77CFABB681A03FB68134403F5805321
:100EA0001A4600235361BB681A03FB68134403F519
:100EB00080531A467B68DBB2536100BF1037BD46D2
:100EC00080BD00BFA04D000080B584B000AFF860C9
:100ED000B9601346FB71BB68072B02D91548FFF7B1
:100EE00055FAFB79002B10D0BB681A03FB6813443A
:100EF00003F58053DB68BA681103FA680A4402F507
:100F0000805243F48033D3600FE0BB681A03FB6860
:100F1000134403F58053DB68BA681103FA680A4486
:100F200002F5805223F48033D36000BF1037BD46F2
:100F300080BD00BF7845000080B584B000AFF86088
:100F4000B9601346FB71BB68072B02D91548FFF740
:100F50001DFAFB79012B10D1BB681A03FB681344FF
:100F600003F58053DB68BA681103FA680A4402F596
:100F7000805243F40043D3600FE0BB681A03FB6860
:100F8000134403F58053DB68BA681103FA680A4416
:100F900002F5805223F40043D36000BF1037BD46F2
:100FA00080BD00BFC845000080B584B000AF786048
:100FB0000023FB6006E00B4A7B68934206D0FB6887
:100FC0000133FB60FB68002BF5D000E000BFFB683D
:100FD000002B02D00448FFF7D9F9FB6818461037F8
:100FE000BD4680BD000008401846000080B586B0B0
:100FF00000AF786039603B68002B02D13348FFF7BF
:10100000C5F900237B617868FFF7CEFF38613B6943
:10101000002B03D10B231846FFF7D8FE7868FFF7A3
:10102000C3FF0B23184602F0B3FD7B681B68FB600F
:10103000FB6823F0F6033A681278002A01D0802278
:1010400000E0002213433A689278002A01D010226F
:1010500000E0002213433A681279002A01D00422EA
:1010600000E0002213433A68D278002A01D002221D
:1010700000E0002213433A685278002A01D040224F
:1010800000E000221343FB607B68FA681A600023CB
:101090007B6113E03B687A69023253F82230002BFF
:1010A00009D03B687A69023253F822301A467969CE
:1010B000786800F00DF87B6901337B617B69072B51
:1010C000E8D900BF00BF1837BD4680BD4C460000C0
:1010D00080B584B000AFF860B9607A607B68002B9F
:1010E00002D11348FFF752F97B681A46B968F868CD
:1010F00000F020F87B685B68002B06D07B685B689B
:101100001A46B968F868FFF7B9FE7B681B7A1A4679
:10111000B968F868FFF7D8FE7B685B7A1A46B96849
:10112000F868FFF709FF00BF1037BD4680BD00BF5C
:101130006C46000080B586B000AFF860B9607A6098
:10114000BB68072B02D91848FFF720F97B68002BF2
:1011500002D11648FFF71AF97B685B78FB757B684C
:101160001B78BB757B689B787B75BB7D002B02D0A1
:101170004FF0004200E00022FB7D002B01D0002355
:1011800001E04FF080431A437B7D03F00703B96809
:101190000803F968014401F5805113430B6100BF56
:1011A0001837BD4680BD00BF94460000E4460000ED
:1011B00080B582B000AF786039603B68002B02D107
:1011C0001748FFF7E3F83B6803F01F03002B02D03A
:1011D0001448FFF7DBF83B6800221A603B680022E6
:1011E0009A803B680022DA803B6800229A603B6864
:1011F0000022DA603B6800221A613B6800229A8272
:101200003B680022DA823B6800229A613B68082230
:101210009A833B680022DA8300BF0837BD4680BD51
:10122000044700002447000080B582B000AF78601A
:1012300039603B68002B02D11348FFF7A7F83B68E1
:1012400000221A603B6800229A803B680022DA8004
:101250003B6800229A603B680022DA603B6800220B
:101260001A613B6800229A823B680022DA823B685E
:1012700000229A613B6800229A833B680022DA834D
:1012800000BF0837BD4680BD5447000080B586B01A
:1012900000AFF860B9607A60FB68002B02D12B4880
:1012A000FFF774F87B68072B02D92948FFF76EF81F
:1012B00020220021F86802F066FFFB687A689A61D4
:1012C000B868FFF771FE78617B69002B01D00423B9
:1012D00037E020497B69DA007B681344FA6841F8FB
:1012E00023207B681A03BB68134403F581531A4615
:1012F000FB681A617B681A03BB68134403F58053CB
:101300001A46FB689A60FB68BA68DA607B681A0361
:10131000BB68134403F580531A4601239360FB68AE
:101320001B691946B868FFF77FFF0B4A7B69DB0032
:101330001A447B68134493F90030184602F035FCD8
:10134000002318461837BD4680BD00BF784700000F
:101350009C47000058000020F04D000080B584B08C
:1013600000AFF860B9607A60FB68002B02D10648D4
:10137000FFF70CF8FB68BA681A60FB687A685A6075
:1013800000BF1037BD4680BDEC47000080B582B07D
:1013900000AF78607B68002B02D10848FEF7F6FFAB
:1013A0007B689B681B687A68926823F0804323F00F
:1013B0000103136000BF0837BD4680BD1048000020
:1013C00090B589B000AF78607B68002B02D1694886
:1013D000FEF7DCFF7B689B681B6803F08043002BF3
:1013E00014BF01230023FB767B689B689B6803F096
:1013F0000103002B07D07B689B689A687B689B6819
:1014000042F001029A607B685B69002B0DD17B681A
:101410001B68002B00F0AA807B681C687B685968F9
:10142000FA7E00237868A047A0E07B681B699B696F
:101430007B617B681B699B8B9BB203F01003002BC5
:1014400014BF01230023FB747B685B691A467B6928
:10145000934202D24848FEF799FF7B685B691A46BF
:101460007B699B1A7B617B695B09FB60FB68002BD6
:1014700004D0FB68DBB2013BDBB205E07B68DB7FBD
:101480005BB2DBB2013BDBB2FB72FA7A7B681B7F9B
:101490005BB2DBB203F07F039A421CD17B689B7F77
:1014A000BB727B68DB7F7B7297F90A2097F9093062
:1014B0009A4205D0FB7C83F00103DBB2002B07D0FE
:1014C000FB7E002B04D07B689B7F5BB2FB611DE041
:1014D0000023FB611AE0FB7A7A68127F52B29B1AF2
:1014E000FB61FB69002B06DA7B68DB7F5BB21A4687
:1014F000FB691344FB61FB7E002B07D07B689B6874
:101500001A687B689B6842F080421A6097F90B204A
:101510007B681A777B689B7F5BB2DAB2FB69DBB2D0
:10152000D31ADBB25AB27B689A777B681B68002BB0
:1015300009D07B681C687B685968FB6923EAE37300
:10154000FA7E7868A047FB7E002B0FD07B681B6972
:101550009B8B9BB203F01003002B07D07B689B682A
:101560001A687B689B6842F080421A6000BF24378B
:10157000BD4690BD344800005848000080B582B098
:1015800000AF786039607B68002B19D13B68072B6E
:1015900016D80D4B1A463B681B03134403F58053C2
:1015A0009B6803F00103002B0BD008497B68DA002D
:1015B0003B68134451F823301846FFF701FF00E061
:1015C00000BF0837BD4680BD00000840580000201D
:1015D00080B487B000AF78607B68B3F1FF3F44D040
:1015E0007B681B0C7B617B689BB23B617A69224BF9
:1015F0001344FB60214BD3F8FC33204A23F0010352
:10160000C2F8FC337B69FA2B0FD11C4BD3F8382975
:1016100001213B6901FA03F318491343C1F8383932
:10162000164B4FF000425A6416E07B69F02B0ED146
:10163000124BD3F83C2901213B6901FA03F30F490E
:101640001343C1F83C390D4B01225A6504E00122D5
:101650003B699A40FB681A60084BD3F8FC33074A91
:1016600043F00103C2F8FC3300E000BF1C37BD4665
:101670005DF8047B704700BF44100940001009402A
:1016800080B487B000AF78607B68B3F1FF3F54D07F
:101690007B681B0C7B617B689BB23B617A692A4B40
:1016A0001344FB60294BD3F8FC33284A23F0010391
:1016B000C2F8FC337B69FA2B17D1244BD3F83829B5
:1016C00001213B6901FA03F3DB4320491340C1F8D0
:1016D00038391E4BD3F8383903F00F03002B23D1D0
:1016E0001A4B4FF000429A641EE07B69F02B16D132
:1016F000164BD3F83C2901213B6901FA03F3DB4384
:1017000012491340C1F83C39104BD3F83C3903F06F
:101710000F03002B08D10D4B01229A6504E0012232
:101720003B699A40FB681A60084BD3F8FC33074AC0
:1017300043F00103C2F8FC3300E000BF1C37BD4694
:101740005DF8047B704700BF481009400010094055
:1017500080B584B000AF78600023FB6009E00D4ADB
:10176000FB6852F823307A689A4206D0FB6801334E
:10177000FB60FB68042BF2D900E000BFFB68042B80
:1017800002D90548FEF702FEFB6818461037BD4631
:1017900080BD00BFF84D0000A448000080B584B0B3
:1017A00000AF78600B46FB707868FFF7D1FFF860F8
:1017B000FB68042B02D90C48FEF7E8FDFB78002BF0
:1017C00007D00A4AFB6852F823301846FFF700FF9B
:1017D00006E0064AFB6852F823301846FFF750FF30
:1017E00000BF1037BD4680BDD84800000C4E000039
:1017F00080B584B000AFF860B9607A607B68002B78
:1018000002D11548FEF7C2FD0121F868FFF7C6FFB7
:101810007B681B78002B0AD1FB685A6D0121BB68DD
:1018200001FA03F3DB431A40FB685A650FE07B685B
:101830005B781A46B968F86802F030FAFB685A6DAE
:101840000121BB6801FA03F31A43FB685A6500BF24
:101850001037BD4680BD00BF1049000080B487B07E
:1018600000AF78607B68B3F1FF3F44D07B681B0C0E
:101870007B617B689BB23B617A69224B1344FB60BE
:10188000214BD3F8FC33204A23F00103C2F8FC3388
:101890007B69FA2B0FD11C4BD3F8382901213B6906
:1018A00001FA03F318491343C1F83839164B4FF0C6
:1018B00000425A6416E07B69F02B0ED1124BD3F82C
:1018C0003C2901213B6901FA03F30F491343C1F895
:1018D0003C390D4B01225A6504E001223B699A40D4
:1018E000FB681A60084BD3F8FC33074A43F0010346
:1018F000C2F8FC3300E000BF1C37BD465DF8047B36
:10190000704700BF441009400010094080B584B002
:1019100000AF78600023FB6009E00D4AFB6852F8D5
:1019200023307A689A4206D0FB680133FB60FB687B
:10193000042BF2D900E000BFFB68042B02D9054854
:10194000FEF724FDFB6818461037BD4680BD00BF7A
:10195000204E00003049000080B58CB000AFF86028
:10196000B9607A60BB68002B02D18648FEF70EFD95
:10197000BB681B68002B02D18348FEF707FDBB68DC
:101980001B68B3F1006F02D38048FEF7FFFC7B6851
:10199000002B02DA7E48FEF7F9FCBB681B7A032BAA
:1019A00002D97C48FEF7F2FCBB685B7A032B02D9B4
:1019B0007948FEF7EBFC0023FB62BB681B683B62C7
:1019C000002387F825300023FB84042387F8243084
:1019D00042E07B685A00BB681B6897F8241001FB43
:1019E00003F3B2FBF3F301335B08FB61FB69002BEC
:1019F00002D10123FB6106E0FB69B3F5005F02D36E
:101A000041F6FF73FB6197F82430FA6902FB03F398
:101A10007A68B2FBF3F37B61BB681B687A699A4210
:101A200004D9BB681B687A69D31A03E0BB681A68DB
:101A30007B69D31A3B613A693B6A9A4207D83B6992
:101A40003B6297F8243087F82530FB69FB8497F8D0
:101A50002430013387F8243097F82430202BB8D96C
:101A6000BB681B684D4AA2FB03235A0913465B005F
:101A700013443A6A9A4203D940F22153FB624BE184
:101A8000F868FFF743FFB861454ABB6952F8233055
:101A90001846FFF7E3FEF868FFF738FF0346414AB0
:101AA00032F81330184602F014F9F86802F03FF9E2
:101AB000FB681B69BB6297F82530032B07D997F8A1
:101AC0002530072B03D8BB6A43F40033BB62BB6AE3
:101AD00023F0F853BB6297F82530013B1B0603F057
:101AE000F853BA6A1343BB62BB6A23F4FF5323F073
:101AF0001F03BB62FB8CC3F30C02BB6A1A43FB6877
:101B00001A61FB681B6923F00052FB681A61FB68CD
:101B10009A69254B1340BB62BB681B791A46BB68A8
:101B20009B7C1B0203F4E0631A43BB685B7C9B0055
:101B300003F004031343BA6A1343BB62BB685B79C7
:101B4000012B0DD1BB681B79002B04D0BB6A23F499
:101B50000063BB620CE0BB6A43F40063BB6207E056
:101B6000BB681B79002B03D0BB6A43F01003BB6238
:101B7000BB685B7D002B19D0BB6A43F48053BB620A
:101B800018E000BF684900008C490000BC49000013
:101B9000FC490000304A00008C4A00001F85EB51D0
:101BA0003C4E0000544E0000E8F8FFEFBB6A23F4FF
:101BB0008053BB62BB689B7D002B03D0BB6A43F0A4
:101BC0008053BB62FB68BA6A9A61FB681B6923F4A5
:101BD0000053BB62BB68DB795B0303F40052BB6A52
:101BE0001A43FB681A61BB685B7A1B04BA68127AF5
:101BF0001A43FB68DA62FB689B6A43F08802FB6861
:101C00009A62FB689B6A43F44042FB689A62454BC8
:101C1000BB62BB6A43F00043BB62BB6A43F4404310
:101C2000BB62FB685A6ABB689B7B1B0103F0100117
:101C3000BB685B7B5B0103F020030B431A43FB682B
:101C40005A62BB689B7A002B0FD0FB685B6A43F03B
:101C50000802FB685A62BB68DB7A83F00103DBB2DF
:101C6000002B16D13048FEF791FBBB68DB7A002BC6
:101C70000FD0FB685B6A43F00202FB685A62FB68A4
:101C80005A6ABB68DB7B9B0003F004031A43FB68C2
:101C90005A62BB681B7B002B05D0FB685B6A43F074
:101CA0000102FB685A62FB685B6A23F44072FB68BE
:101CB0005A62FB685A6ABB681B7C1B0203F44073C0
:101CC0001A43FB685A62BB689B79002B04D0BB6A3D
:101CD00043F00053BB6203E0BB6A23F00053BB62D6
:101CE000FB685A69BB6A1A43FB685A61FB689B69C7
:101CF000BB62BB68DB7C002B03D0BB6A43F40023D0
:101D0000BB62BB681B7D002B03D0BB6A43F48023FE
:101D1000BB62FB68BA6A9A61FB6A18463037BD46F7
:101D200080BD00BF00001F40E84A000080B584B0BD
:101D300000AF786039603A68254B13403B60002360
:101D4000FB603B681B0203F40043FA681343FB602B
:101D50003B6823F080033B603B681B0203F4804335
:101D6000FA681343FB603B6823F040033B6001F0DB
:101D7000BDFFB8607B681A69FB681A437B681A610B
:101D8000B86801F0C4FF01F0B1FFB8607B689B6ADE
:101D900023F440323B6803F440731A437B689A6231
:101DA000B86801F0B4FF3B6823F440733B6001F076
:101DB0009DFFB8607B689A693B681A437B689A61AB
:101DC000B86801F0A4FF00BF1037BD4680BD00BF5A
:101DD000C0C3F00F80B584B000AF786039603A6856
:101DE000264B13403B600023FB603B681B0203F45F
:101DF0000043FA681343FB603B6823F080033B60B9
:101E00003B681B0203F48043FA681343FB603B68A2
:101E100023F040033B6001F069FFB8607B681A69FA
:101E2000FB68DB431A407B681A61B86801F06FFFFA
:101E300001F05CFFB8607B689A6A3B6803F440730A
:101E4000DB43134023F440327B689A62B86801F0A8
:101E50005EFF3B6823F440733B6001F047FFB860CE
:101E60007B689A693B68DB431A407B689A61B86873
:101E700001F04DFF00BF1037BD4680BDC0C3F00F5D
:101E800080B485B000AF78607B685B69FB607B687D
:101E90009B6A1B0C03F0C303FA681343FB60FA68E8
:101EA000044B1340FB60FB6818461437BD465DF8D1
:101EB000047B7047C3C0FFC180B586B000AFF86037
:101EC000B9607A60BB68002B02D11448FEF75EFA55
:101ED000BB687B617B683B6111E000BFFB685B69AD
:101EE00003F40003002BF9D07B691B781A46FB68CA
:101EF000DA617B6901337B613B69013B3B613B6993
:101F0000002BEAD100BFFB685B6903F48003002B60
:101F1000F9D0002318461837BD4680BD184B000085
:101F200080B500AF044B1B68044A12681146044890
:101F3000984700BF80BD00BF8C00002078000020C3
:101F400000F0094080B500AF044B5B68044A52685A
:101F500011460448984700BF80BD00BF8C00002098
:101F60007800002000000A4080B500AF044B9B6859
:101F7000044A926811460448984700BF80BD00BFDC
:101F80008C0000207800002000100A4080B500AFCF
:101F9000044BDB68044AD26811460448984700BFE6
:101FA00080BD00BF8C0000207800002000200A4087
:101FB00080B500AF044B1B69044A126911460448FE
:101FC000984700BF80BD00BF8C0000207800002033
:101FD00000300A4080B483B000AF0346FB7197F92C
:101FE0000730002B0BDBFB7903F01F02074997F941
:101FF00007305B09012000FA02F241F8232000BFFC
:102000000C37BD465DF8047B704700BF00E100E07F
:1020100080B586B000AFF860B9603B601346FB71D5
:10202000BB68002B02D10E48FEF7B0F9BB687B619C
:10203000FB79002B0FD07B691B680021184601F04B
:10204000A5FEF86801F0CAFD7B691B684FF48001AA
:102050001846FFF76BFE00BF1837BD4680BD00BFB6
:102060003C4B000090B587B000AFF860B9603B60B2
:102070001346FB71BB68002B02D11348FEF786F9AB
:10208000BB687B61FB79002B19D07B691A687B697F
:102090005B681946104600F09BF87B695B681B681B
:1020A000002B0CD07B695B681C687B6918687B69B6
:1020B00059687B695B685B6840F21752A04700BFB4
:1020C0001C37BD4690BD00BF644B000080B586B094
:1020D00000AFF860B9607A603B60BB68002B02D14A
:1020E0003248FEF753F9F868FFF710FC7861304981
:1020F0007B69FA6841F833202D4A7B69DB00134481
:10210000BA685A601C220021B86802F03CF8BB682B
:1021100002229A76BB6800225A76BB687A6A5A61B4
:10212000BB683A6A1A61BB687A681A60BB683A6829
:102130005A607B6A002B05D0FB68DB6A23F44032CF
:10214000FB68DA621B497B69BA6841F823201A4AA6
:102150007B691A4942F823101949F868FFF73AFEDB
:10216000184A7B69134493F90030184601F0F5FDD5
:102170003B6A002B09D0BB6818697B69DB000C4AFD
:1021800013441A461049FFF7E9F87B6A002B09D07F
:10219000BB6858697B69DB00054A13441A460B4942
:1021A000FFF7DCF800BF1837BD4680BD8C4B000040
:1021B000A0000020780000208C0000201D220000DC
:1021C000C0C3F00F344E0000112000006520000055
:1021D00080B582B000AF786039603B68002B02D1D7
:1021E0000C48FEF7D3F83B685B69002B02D10A4824
:1021F000FEF7CCF80021786801F0E4FD3B685B69EC
:10220000184601F0EBFC3B6802229A7600BF0837C3
:10221000BD4680BDB44B0000DC4B000090B585B0DE
:1022200000AF786039603B68002B02D11248FEF79E
:10223000ADF87868FFF724FE034603F48003002B13
:1022400016D03B68FB604FF480017868FFF7C2FD51
:10225000FB6800225A76FB681B68002B08D0FB68DD
:102260001C68FB685B6840F21652F9687868A04702
:1022700000BF1437BD4690BD144C000080B586B039
:1022800000AF0346FB80FB881B0A9BB23B61FB88C7
:10229000DBB2FB600122FB6802FA03F3BB60254B53
:1022A0007B61FB884FF6FF72934201D101233DE031
:1022B000FB681F2B02D92048FEF768F83B69022B08
:1022C00002D91E48FEF762F81A4BD3F8FC33194ABC
:1022D00023F00103C2F8FC333B69002B05D1154AFA
:1022E000BB685360134B7B6110E03B69012B05D148
:1022F000104ABB685361124B7B6107E03B69022BBC
:1023000004D10C4ABB6853620E4B7B6100BF7B69F2
:102310001A68BB681340002BF9D0064BD3F8FC3386
:10232000044A43F00103C2F8FC330023184618376F
:10233000BD4680BD00100940484C0000684C0000BC
:10234000101009402010094080B582B000AF7860BD
:1023500039603B68002B02D11048FEF717F83B6844
:102360001B7803F003027B681A643B685B78002BE0
:1023700010D07B681B6C43F080427B681A6400BFFE
:102380007B681B6C002BFBDA7B681B6C23F08042A4
:102390007B681A6400BF0837BD4680BD884C0000CA
:1023A00080B582B000AF786039603B68002B02D105
:1023B0001B48FDF7EBFF7B681B6903F00103002B53
:1023C00002D042F6A00326E0786801F028FD03461B
:1023D000002B06D03B685B78002B02D142F6A503A8
:1023E00019E0786801F02CFD03461A463B681B781B
:1023F0009A4209D00121786801F074FD3B681B788E
:102400001946786801F03EFD3B685B7819467868AC
:1024100001F068FD002318460837BD4680BD00BFA7
:10242000A84C000080B500AF224BD3F88830214A79
:1024300043F47003C2F888301E4BD3F888301D4A2D
:1024400043F00F03C2F888301A4BD3F88C30194A86
:1024500043F4406343F00303C2F88C30164BD3F8C7
:102460002438154A43F48073C2F82438124BD3F849
:102470002438114A23F00103C2F824380F4BD3F853
:1024800000330E4A43F08073C2F800330A4BD3F88E
:102490000034094A23F44033C2F80034064BD3F821
:1024A0000034054A23F00103C2F8003401F049FD6D
:1024B00000BF80BD00ED00E00010094000000940B1
:1024C00080B586B000AFF860B9607A60FB68002B19
:1024D00002D11048FDF75AFFBB68002B02D10E480D
:1024E000FDF754FF7B68002B02D10C48FDF74EFF2F
:1024F000FB687B617B691B781A46094B53F82230D5
:102500007A68B9681846FFF7D7FC002318461837D1
:10251000BD4680BDC84C0000F44C00001C4D0000BE
:10252000604E000080B582B000AF0346FB71FB79BE
:102530002B2B00F2FF8001A252F823F0212600008D
:102540003527000035270000292600003527000028
:10255000352700003527000031260000392600000D
:10256000352700000F260000412600004926000004
:10257000512600005926000061260000692600004F
:102580007B26000035270000832600003527000049
:10259000FF250000ED2500008B260000932600009B
:1025A0009B260000A3260000AB260000B3260000F7
:1025B000BB260000C3260000CB260000DD2600005D
:1025C000EF260000F7260000FF2600003527000058
:1025D00007270000352700003527000035270000B9
:1025E0000F270000232700002B27000001214FF4B4
:1025F0006270FDF78BFF5348FDF7ECFF9DE0012172
:102600004FF46370FDF782FFFEF79EF895E001211D
:102610004FF46070FDF77AFF4B4801F030FA8CE020
:102620004A4801F02CFA88E0494801F028FA84E091
:10263000484801F024FA80E0474801F020FA7CE0A5
:10264000464801F01CFA78E0454801F018FA74E0B9
:10265000444801F014FA70E0434801F010FA6CE0CD
:10266000424801F00CFA68E0414801F008FA012103
:102670004FF4BE70FDF74AFF5FE03E4801F0FFF9FE
:102680005BE03D4801F0FBF957E03C4801F0F7F909
:1026900053E03B4801F0F3F94FE03A4801F0EFF91D
:1026A0004BE0394801F0EBF947E0384801F0E7F931
:1026B00043E0374801F0E3F93FE0364801F0DFF945
:1026C0003BE0354801F0DBF937E0344801F0D7F959
:1026D00001214FF48270FDF719FF2EE0304801F020
:1026E000CEF901214FF48670FDF710FF25E02D484B
:1026F00001F0C5F921E02C4801F0C1F91DE02B489B
:1027000001F0BDF919E02A4801F0B9F915E04FF0E0
:10271000D47001F0B4F901214FF4D670FDF7F6FE44
:102720000BE0244801F0ABF907E00121D420FDF7CC
:10273000EDFE02E02048FDF729FE00BF0837BD4648
:1027400080BD00BF40A5AE020300000207004001AB
:102750000700B00107005001070060010700A80052
:102760000700B0000700B8000700C0000700C8005D
:1027700002007801070080010700D8000700A000D0
:102780000700E0000700E80007009001070098013B
:102790000700F0000700F800070030010200000108
:1027A00002000801070010010700180107002001BE
:1027B0000300380103002801444D000080B584B0B7
:1027C00000AFFEF7E7F8F860FB68524A93421AD868
:1027D00003233B7201237B7207F1080319464E481D
:1027E000FFF7DEFD4D4B9B6823F00F034B4A43F090
:1027F0000103936003233B7101237B713B1D194649
:102800004548FFF7A1FD1520FFF78CFE1620FFF7C6
:1028100089FE0A20FFF786FEFB683E4A93421AD9DA
:102820003E4B9B6823F00F033C4A43F00103936047
:1028300003233B7101237B713B1D19463648FFF78B
:1028400083FD03233B7201237B7207F108031946C2
:102850003148FFF7A5FD0020FFF764FE0320FFF7D6
:1028600061FE0720FFF75EFE0820FFF75BFE0B20EE
:10287000FFF758FE0C20FFF755FE0D20FFF752FE24
:102880000E20FFF74FFE0F20FFF74CFE1020FFF742
:1028900049FE1120FFF746FE1320FFF743FE1720E5
:1028A000FFF740FE1820FFF73DFE1920FFF73AFE24
:1028B0001A20FFF737FE1B20FFF734FE1C20FFF71E
:1028C00031FE1D20FFF72EFE1E20FFF72BFE1F20DE
:1028D000FFF728FE2020FFF725FE2120FFF722FE2C
:1028E0002220FFF71FFE2320FFF71CFE2520FFF705
:1028F00019FE2920FFF716FE2A20FFF713FE2B20D2
:10290000FFF710FE064B034A1A6000BF1037BD46A2
:1029100080BD00BF40A5AE02000009400050094044
:102920000400002080B483B000AF0346FB7197F928
:102930000730002B0BDBFB7903F01F02074997F9E7
:1029400007305B09012000FA02F241F8232000BFA2
:102950000C37BD465DF8047B704700BF00E100E026
:1029600080B483B000AF03463960FB7197F907303C
:10297000002B0ADB3B68DAB20C4997F907305201A9
:10298000D2B20B4483F800230AE03B68DAB208496C
:10299000FB7903F00F03043B5201D2B20B441A76C9
:1029A00000BF0C37BD465DF8047B704700E100E0D6
:1029B00000ED00E080B584B000AFF860B9607A60E7
:1029C000BB68072B02D90D48FDF7E0FCBB681A0372
:1029D000FB68134403F580531A4600235361BB6818
:1029E0001A03FB68134403F580531A467B68DBB275
:1029F000536100BF1037BD4680BD00BF604D000071
:102A000080B582B002AF0E4A0E490F48FEF7A4FF10
:102A1000172200210D48FFF7CDFF00220B490C487B
:102A2000FEF734FC0A4B019300230093002300229D
:102A300008490548FFF74AFB00BFBD4680BD00BFFF
:102A400040A5AE02744E000000000A40000008409D
:102A5000C8000020E800002080B500AF1021084821
:102A600001F0FFFA07490848FEF7EEF80121064891
:102A700001F00AFB0021044801F022FB00BF80BDE9
:102A8000000009408C4E000000400B4080B500AFB4
:102A900020220021074801F076FB07490748FEF78E
:102AA000A5FAFFF7ADFFFFF7D7FF01F019FB00BF55
:102AB00080BD00BF1000002008000020000008407A
:102AC00080B487B000AF78607B68B3F1FF3F44D03B
:102AD0007B681B0C7B617B689BB23B617A69224BF4
:102AE0001344FB60214BD3F8FC33204A23F001034D
:102AF000C2F8FC337B69FA2B0FD11C4BD3F8382971
:102B000001213B6901FA03F318491343C1F838392D
:102B1000164B4FF000425A6416E07B69F02B0ED141
:102B2000124BD3F83C2901213B6901FA03F30F4909
:102B30001343C1F83C390D4B01225A6504E00122D0
:102B40003B699A40FB681A60084BD3F8FC33074A8C
:102B500043F00103C2F8FC3300E000BF1C37BD4660
:102B60005DF8047B704700BF441009400010094025
:102B700080B582B000AF2A48FFF7A2FF2948FFF7CF
:102B80009FFF2948FFF79CFF40F2062001F0C0FAA2
:102B900040F2071001F0BCFA4FF4877001F0B8FA68
:102BA000182001F0B5FA40F20F1001F0B1FA1F4BF6
:102BB0001B88BB803B1D1A4615211D48FEF718FED9
:102BC0001C4BD3F888301B4A23F4F853C2F88830E2
:102BD000184BD3F8D43023F4F853164A43F48053F7
:102BE000C2F8D43003220821134801F09EFA124B98
:102BF000D3F8A030104A43F48053C2F8A030032227
:102C000009210D4801F091FA0B4BD3F8A4300A4A80
:102C100043F48053C2F8A43000BF0837BD4680BDDE
:102C2000060020000E0010000F001000A84E00004B
:102C30000040104000E00B4000F00B4010B5174A78
:102C40001749002001F01FFB4FF480734FF480629E
:102C50000021124801F0B1FA124A1349012001F093
:102C600012FB4FF480734FF4806200210D4801F095
:102C7000A4FA0E4B1B68022B0EDD0D4A0A490220F6
:102C800001F001FBBDE810404FF480734FF4806207
:102C90000021074801F091BA10BD00BF08010020D3
:102CA000B04E000044010020B24E0000AC4E0000C7
:102CB000800100202DE9F041D5688046EB020E46E8
:102CC0001446576912D5384601F0E5FB45F010056A
:102CD000A0613846A16901F0E7FB002819DAE36832
:102CE0004FF0FF3043F08003E36010E00C4B2B40CB
:102CF000002BEED132464146384601F0DBFB20F096
:102D00000043F61AA3693344A3610028E7D1BDE864
:102D1000F08125F4003525F01005E560EAE700BFF5
:102D200010000200F8B5044638B905460A4B0B4EB0
:102D30001F68A74205DC2846F8BDBDE8F84001F051
:102D400035BB304601F032FB002818BF4FF0FF358D
:102D500001343C36EDE700BFAC4E00000801002016
:102D60002DE9F843C6683B4B044633400D46904678
:102D70007BB1D0F81490484601F090FB074640B96B
:102D8000B8F1010F09D0B8F1020F31D0B8F1000F3E
:102D900007D002273846BDE8F883204600F05CF8EB
:102DA0000544002DF5DBB30404D52368E26A9A429A
:102DB00038BFE362A069A8420EDC2368E26A93424E
:102DC00038BF134622691918891AA94204DB216BFE
:102DD00000EB010CAC452CDC0023C4E9013346F0C8
:102DE0002006A56226F4032626F04006E660D1E719
:102DF000484601F050FBB0F1000CE26804DA42F002
:102E000080020127E260C5E72168A369E06A814288
:102E10002CBF5B181B1821699206A3EB010303D595
:102E2000A26A9342B8BF13466345ACBFED18654430
:102E3000B7E72D1AB00744BF691AA160F10744BF74
:102E40009B1AEB1A2A4448BF6360226026F02006D2
:102E5000C8E700BF03001000C3689A0705D121220C
:102E60000D4B4FF0FF301A60704703F020021B0338
:102E700009D512B1806A0138704703688269006918
:102E80001344181AF7E70AB1806A70470368826929
:102E900000691344181A70470401002080B485B0FB
:102EA00000AF786039600023FB600023FB7220E0F4
:102EB0007B681B685A1C7B681A607B681B681B78E0
:102EC000BB72BB7A2F2B0DD9BB7A392B0AD8FA6883
:102ED00013469B0013445B001A46BB7A1344303BF5
:102EE000FB6006E07B681B685A1E7B681A60012342
:102EF000FB72FB7A002BDBD0FB6818461437BD460B
:102F00005DF8047B704780B489B000AFF860B960A9
:102F10007A60FB681B68FB610623BB610023FB75BD
:102F2000FB690133FB61FB691B782E2B24D1002345
:102F3000BB610023FB751BE0FB690133FB61FB698F
:102F40001B78BB75BB7D2F2B0DD9BB7D392B0AD8C8
:102F5000BA6913469B0013445B001A46BB7D1344B9
:102F6000303BBB6104E0FB69013BFB610123FB7566
:102F7000FB7D002BE0D002E0FB69013BFB61FB68BD
:102F8000FA691A60BB6918462437BD465DF8047BB0
:102F9000704780B485B000AF0346FB710023FB602F
:102FA000FB796F2B08D0FB79622B05D0FB79702B56
:102FB00002D0FB79752B01D10123FB60FB68184619
:102FC0001437BD465DF8047B704780B485B000AF10
:102FD0000346FB710023FB60FB79642B02D0FB7975
:102FE000692B01D10123FB60FB6818461437BD46ED
:102FF0005DF8047B704790B585B000AFF860B960AC
:103000007A60FB70BA687B68D31A7C6A2022F96AFE
:10301000B86AA04708E03B6A5A1E3A621A787C6A8E
:103020000123F96AB86AA0473B6A1B78002BF2D1EA
:1030300000BF00BF1437BD4690BD90B585B000AF4E
:10304000F860B9607A60FB70BA687B68D31A7C6AF2
:103050002022F96AB86AA04708E03B6A5A1E3A6221
:103060001A787C6A0123F96AB86AA0473B6A1B7820
:10307000002BF2D100BF00BF1437BD4690BD80B415
:1030800085B000AF0346FB710023FB60FB79662B24
:1030900002D0FB79462B01D10123FB60FB68184667
:1030A0001437BD465DF8047B704780B485B000AF2F
:1030B0000346FB710023FB60FB79782B02D0FB7980
:1030C000582B01D10123FB60FB6818461437BD461D
:1030D0005DF8047B704780B485B000AF78607B6892
:1030E0001B68FB60FB680133FB60FB681B78FB72AD
:1030F000FB7A682BF6D0FB7A6C2BF3D0FB68013B94
:10310000FB607B68FA681A6000BF1437BD465DF843
:10311000047B704780B485B000AF0346FB71FB7938
:103120006F2B02D10823FB730DE0FB79622B02D1D8
:103130000223FB7307E0FB79702B02D11023FB7392
:1031400001E00A23FB73FB7B18461437BD465DF88C
:10315000047B704780B48FB000AFF860B9607A60CC
:103160003B600023FB62FB68BB62BB6A5A1CBA620D
:1031700000221A7000237B6000237B6200233B62E5
:103180000023FB6100237B630023BB6100233B63BF
:1031900000237B61BB681B687B637B6B002B30D19A
:1031A000BB6A30221A70FB6A0133FB62FB6A2CE0B7
:1031B0007A6B3B68B2FBF3F3BB61BB693A6802FB15
:1031C00003F37A6BD31A3B633B6B092B03D83B6B3E
:1031D00030333B630AE097F84030002B01D04122A6
:1031E00000E061223B6B13440A3B3B63BB697B639A
:1031F000BB6A5A1CBA623A6BD2B21A70FB6A0133CC
:10320000FB627B6B002BD3D1FB6A18463C37BD4673
:103210005DF8047B704780B483B000AF786039609C
:103220003B681B68191D3A6811601A687B681A6050
:1032300000BF0C37BD465DF8047B704780B483B097
:1032400000AF786039603B681B68191D3A681160EF
:103250001A687B681A6000BF0C37BD465DF8047BB6
:10326000704780B483B000AF786039603B681B68FA
:10327000191D3A6811601A687B681A6000BF0C3724
:10328000BD465DF8047B704780B584B000AF7860C0
:103290000023FB60786800F0AFFF0346FB60FB682B
:1032A00018461037BD4680BD90B5A1B004AFF86098
:1032B000B9607A603B6000237B6600233B66002395
:1032C0003B620023FB650023BB61FB68BB64BB6CF6
:1032D0001B78002B00F04081BB6C1B7887F85B30BB
:1032E00097F85B30252B0BD097F85B2007F1200176
:1032F0003C6801237868A047BB6C0133BB642AE1BA
:10330000012387F86B3007F1080207F148031146E3
:103310001846FFF7C3FD786507F1080107F1480378
:1033200000221846FFF7EFFD386507F148031846FD
:10333000FFF7D1FEBB6C0133BB64BB6C1B7887F815
:103340005B3097F85B301846FFF73FFE0346012BD2
:1033500028D107F1080207F11C0311461846FFF7B0
:103360005AFF07F11C0107F1240097F86B30009316
:103370000A230122FFF7EEFE386607F124023B6EB6
:1033800013447B663A6E07F1200303937B68029334
:103390003B6801937B6E00930023796D0020FFF75B
:1033A0002AFED5E097F85B301846FFF768FE034623
:1033B000012B06D1BB68073323F007030833BB603A
:1033C000C6E097F85B301846FFF76FFE0346012B07
:1033D00031D197F85B30782B02D1002387F86B301E
:1033E00007F1080207F1180311461846FFF726FFF8
:1033F00007F1180107F1240097F86B3000931023B0
:103400000022FFF7A7FE386607F124023B6E134443
:103410007B663A6E97F86B1007F1200303937B6885
:1034200002933B6801937B6E00930B46796D0020FD
:10343000FFF703FE8CE097F85B301846FFF7A9FD15
:103440000346012B41D197F85B30702B0DD1BB683F
:103450001A1DBA601B687B6107F1140107F118039C
:103460000422184600F08DFE07E007F1080207F17C
:10347000180311461846FFF7F4FE97F85B3018461C
:10348000FFF748FE0346FB6507F1180107F124002A
:1034900097F86B300093FB6D0022FFF75BFE3866F8
:1034A00007F124023B6E13447B663A6E07F120035A
:1034B00003937B6802933B6801937B6E0093002328
:1034C000796D0020FFF797FD42E097F85B30632BA2
:1034D0000DD1BB681A1DBA601B68FB64FB6CDAB2C5
:1034E00007F120013C6801237868A04730E097F895
:1034F0005B30732B24D1BB681A1DBA601B68FB6656
:10350000FB6E002B24D0F86EFFF7BEFE38667A6D96
:103510003B6ED31A07F120013C6820227868A0474F
:1035200009E0FB6E5A1CFA661A7807F120013C6824
:1035300001237868A047FB6E1B78002BF1D107E0D0
:1035400097F85B2007F120013C6801237868A047C9
:10355000BB6C0133BB64BAE600BF3B6A18467437E4
:10356000BD4690BD80B586B000AFF860B9603B60E5
:103570001346FB7100237B6100237B611CE0BB6869
:103580001B6801337F2B08D9BB681B681946F86894
:10359000FCF79EFEBB6800221A60BB681B681A46D7
:1035A000FB681344FA791A70BB681B685A1CBB6825
:1035B0001A607B6901337B617A693B689A42DEDB82
:1035C00000BF00BF1837BD4680BD0FB480B582B0C4
:1035D00000AF00237B6007F114033B603968386952
:1035E000FCF7A0FE78607B6818460837BD46BDE84A
:1035F000804004B0704780B485B000AFF860B96017
:103600007A60002318461437BD465DF8047B704786
:1036100008B5FCF75BFE08BD08B5FCF757FE08BD12
:1036200008B500F0FBFA08BD08B500F0FFFA08BDC8
:1036300008B500F003FB08BD08B500F007FB08BDA6
:1036400008B500F00BFB08BD08B500F00FFB08BD86
:1036500008B500F013FB08BD08B500F017FB08BD66
:1036600008B5FCF733FE08BD08B5FCF72FFE08BD12
:1036700008B5FCF72BFE08BD08B5FCF727FE08BD12
:1036800008B5FCF723FE08BD08B5FCF71FFE08BD12
:1036900008B5FCF71BFE08BD08B5FCF717FE08BD12
:1036A00008B5FCF713FE08BD08B5FCF70FFE08BD12
:1036B00008B5FCF70BFE08BD08B5FCF707FE08BD12
:1036C00008B5FCF703FE08BD08B5FCF7FFFD08BD13
:1036D00008B5FCF7FBFD08BD08B5FCF7F7FD08BD14
:1036E00008B5FCF7F3FD08BD08B5FCF7EFFD08BD14
:1036F00008B5FCF7EBFD08BD08B5FCF7E7FD08BD14
:1037000008B5FCF7E3FD08BD08B5FEF709FC08BDE8
:1037100008B5FEF717FC08BD08B5FEF725FC08BD87
:1037200008B5FEF733FC08BD08B5FEF741FC08BD3F
:1037300008B5FCF7CBFD08BD08B5FCF7C7FD08BD13
:1037400008B5FCF7C3FD08BD08B5FCF7BFFD08BD13
:1037500008B5FCF7BBFD08BD08B5FCF7B7FD08BD13
:1037600008B5FCF7B3FD08BD08B5FCF7AFFD08BD13
:1037700008B5FCF7ABFD08BD08B5FCF7A7FD08BD13
:1037800008B5FCF7A3FD08BD08B5FCF79FFD08BD13
:1037900008B5FCF79BFD08BD08B5FCF797FD08BD13
:1037A00008B5FCF793FD08BD08B5FCF78FFD08BD13
:1037B00008B5FCF78BFD08BD08B5FCF787FD08BD13
:1037C00008B5FCF783FD08BD08B5FCF77FFD08BD13
:1037D00008B5FCF77BFD08BD08B5FCF777FD08BD13
:1037E00008B5FCF773FD08BD08B5FCF76FFD08BD13
:1037F00008B5FCF76BFD08BD08B5FCF767FD08BD13
:1038000008B5FCF763FD08BD08B5FCF75FFD08BD12
:1038100008B5FCF75BFD08BD08B5FCF757FD08BD12
:1038200008B5FCF753FD08BD08B5FCF74FFD08BD12
:1038300008B5FCF74BFD08BD08B5FCF747FD08BD12
:1038400008B5FCF743FD08BD08B5FCF73FFD08BD12
:1038500008B5FCF73BFD08BD08B5FCF737FD08BD12
:1038600008B5FCF733FD08BD08B5FCF72FFD08BD12
:1038700008B5FCF72BFD08BD08B5FCF727FD08BD12
:1038800008B5FCF723FD08BD08B5FCF71FFD08BD12
:1038900008B5FCF71BFD08BD08B5FCF717FD08BD12
:1038A00008B5FCF713FD08BD08B5FCF70FFD08BD12
:1038B00008B5FCF70BFD08BD08B5FCF707FD08BD12
:1038C00008B5FCF703FD08BD08B5FCF7FFFC08BD13
:1038D00008B5FCF7FBFC08BD08B5FCF7F7FC08BD14
:1038E00008B5FCF7F3FC08BD08B5FCF7EFFC08BD14
:1038F00008B5FCF7EBFC08BD08B5FCF7E7FC08BD14
:1039000008B5FCF7E3FC08BD08B5FCF7DFFC08BD13
:1039100008B5FCF7DBFC08BD08B5FCF7D7FC08BD13
:1039200008B5FCF7D3FC08BD08B5FCF7CFFC08BD13
:1039300008B5FCF7CBFC08BD08B5FCF7C7FC08BD13
:1039400008B5FCF7C3FC08BD08B5FCF7BFFC08BD13
:1039500008B5FCF7BBFC08BD08B5FCF7B7FC08BD13
:1039600008B5FCF7B3FC08BD08B5FCF7AFFC08BD13
:1039700008B5FCF7ABFC08BD08B5FCF7A7FC08BD13
:1039800008B5FCF7A3FC08BD08B5FCF79FFC08BD13
:1039900008B5FCF79BFC08BD08B5FCF797FC08BD13
:1039A00008B5FCF793FC08BD08B5FCF78FFC08BD13
:1039B00008B5FCF78BFC08BD08B5FCF787FC08BD13
:1039C00008B5FCF783FC08BD08B5FCF77FFC08BD13
:1039D00008B5FCF77BFC08BD80B485B000AFF8608B
:1039E000B9601346FB71FB79002B05D10122BB683E
:1039F0009A40FB689A6404E00122BB689A40FB6825
:103A00005A6400BF1437BD465DF8047B704780B42C
:103A100083B000AF786039603B68C3F30B027B680A
:103A20009A6000BF0C37BD465DF8047B704780B4D8
:103A300083B000AF78607B6801229A6200BF0C37C8
:103A4000BD465DF8047B704704207146084202D0F1
:103A5000EFF3098001E0EFF3088081690A884BF6F3
:103A6000AB639A4200D0FEE702318161016801290F
:103A700001D0002100E020210160704700BF80B527
:103A800084B000AF78607B681B0CFB607B689BB2E6
:103A9000BB607B68B3F1FF3F05D0FB689BB2B968A0
:103AA0001846FCF7E7FC00BF1037BD4680BD80B567
:103AB0002DED028B84B000AF0023BB604FF00003FC
:103AC000FB60FCF777FFB860FCF7C0FC0346002BF7
:103AD00022D0FCF799FF7860FCF7B6FF3860BA682F
:103AE0007B68B2FBF3F3BB60BB6807EE903AB8EEBD
:103AF000678AFCF7D9FFF0EE407A68EE277AC7EDC7
:103B0000037A3B6807EE903AB8EE677AD7ED036A1E
:103B1000C6EE877AC7ED037AD7ED037AFCEEE77A33
:103B200017EE903A18461037BD46BDEC028B80BDAB
:103B300080B582B000AF0346FB80FB881846FEF7D5
:103B40009DFB00BF0837BD4680BD80B483B000AF89
:103B5000786039607B685A6A3B681A437B685A62AE
:103B600000BF0C37BD465DF8047B704780B483B05E
:103B700000AF786039607B685A6A3B68DB431A4063
:103B80007B685A6200BF0C37BD465DF8047B704706
:103B900080B582B000AF0346FB80FB881846FEF775
:103BA0006DFB00BF0837BD4680BD80B584B000AF57
:103BB0000346FB710023FB6097F9073013F1800F78
:103BC00002D10123FB6004E097F907301846FDF7A6
:103BD000DFF8FB6818461037BD4680BD80B582B05F
:103BE00000AF78607868FDF7D1FB7B68DA687B68A6
:103BF0001B6919461046FDF7DBFA7B685B69002BF1
:103C000008D07B6800221A777B6800225A777B688D
:103C100000229A7700BF0837BD4680BD80B500AF4F
:103C200000210020FDF7AAFC00BF80BD80B500AFD9
:103C300001210020FDF7A2FC00BF80BD80B500AFD0
:103C400002210020FDF79AFC00BF80BD80B500AFC7
:103C500003210020FDF792FC00BF80BD80B500AFBE
:103C600004210020FDF78AFC00BF80BD80B500AFB5
:103C700005210020FDF782FC00BF80BD80B500AFAC
:103C800006210020FDF77AFC00BF80BD80B500AFA3
:103C900007210020FDF772FC00BF80BD80B485B015
:103CA00000AFF860B9601346FB71FB79002B05D1BA
:103CB0000122BB689A40FB689A6404E00122BB6859
:103CC0009A40FB685A6400BF1437BD465DF8047B18
:103CD000704780B582B000AF0346FB80FB88184672
:103CE000FEF7CCFA00BF0837BD4680BD80B483B074
:103CF00000AFEFF310833B603B687B6072B600BFA0
:103D00007B6818460C37BD465DF8047B704780B46D
:103D100085B000AF78607B68FB60FB6883F3108838
:103D200000BF00BF1437BD465DF8047B704780B408
:103D300083B000AF78607B689B6843F002027B68C9
:103D40009A607B689B6823F002027B689A6000BFE0
:103D50000C37BD465DF8047B704780B584B000AF7A
:103D60000346FB710023FB6097F9073013F1800FC6
:103D700002D10123FB6004E097F907301846FEF7F3
:103D800029F9FB6818461037BD4680BD80B483B062
:103D900000AF78600B46FB70FB78002B06D07B6889
:103DA0001B6943F400027B681A6105E07B681B69AC
:103DB00023F400027B681A6100BF0C37BD465DF832
:103DC000047B704780B483B000AF78600B46FB7013
:103DD000FB78002B06D07B681B6943F400127B68DC
:103DE0001A6105E07B681B6923F400127B681A6185
:103DF00000BF0C37BD465DF8047B704780B483B0CC
:103E000000AF78607B68D3F800311B0D03F003032B
:103E1000DBB218460C37BD465DF8047B704780B4B2
:103E200085B000AF78607B68D3F8003103F0985319
:103E3000FB60FB6818461437BD465DF8047B70478D
:103E400080B483B000AF78607B68D3F800319B0802
:103E500003F00303DBB218460C37BD465DF8047B64
:103E6000704780B483B000AF78607B68D3F80031CE
:103E7000DBB203F00103DBB218460C37BD465DF838
:103E8000047B704780B582B000AF78600B46FB7052
:103E90007868FFF7D5FF03461A46FB7893421CD09B
:103EA0007868FFF7DEFF0346012B02D042F6A80335
:103EB00014E07B68D3F8003123F00C02FB789B0000
:103EC00003F00C031A437B68C3F8002100BF7B6832
:103ED0001B6903F00103002BF9D1002318460837B2
:103EE000BD4680BD80B582B000AF78600B46FB70E8
:103EF000FB78002B08D17868FFF791FF0346002B71
:103F000002D042F6A50318E0FB78012B08D17868AF
:103F1000FFF774FF0346002B02D142F6A6030CE024
:103F20007B68D3F8003123F00102FB7803F0010332
:103F30001A437B68C3F80021002318460837BD46A2
:103F400080BD80B400AF00BFBD465DF8047B704704
:103F500080B586B000AFF860B9607A603B6043F22C
:103F60002153FB82FB681B78012B08D1FB681033BF
:103F70003A687968184600F039F80346FB82FB8AF4
:103F800018461837BD4680BD80B586B000AFF860D2
:103F9000B9607A60FB68002BFCD0BB68002BFCD0BA
:103FA0007B68002BFCD0FB687B617B691B683B61F5
:103FB0003B69002BFCD07B68BA6879693869FFF7E8
:103FC000C7FF034618461837BD4680BD80B584B08C
:103FD00000AFF860B9607A607A68B968F868FFF78E
:103FE000D3FF034618461037BD4680BD80B586B066
:103FF00000AFF860B9607A60FB68002BFCD0BB684A
:10400000002BFCD07B68002BFCD0FB687B617B69BC
:104010007A68B9681846FEF753FA03461846183707
:10402000BD4680BD80B500AFFEF7C8FB00BF80BDB8
:1040300080B584B000AF0346FB710023FB6097F9A5
:10404000073013F1800F02D10123FB6004E097F9E0
:1040500007301846FEF766FCFB6818461037BD4669
:1040600080BD80B483B000AF786039607B68D3F8DE
:1040700004213B681A437B68C3F8042100BF0C3756
:10408000BD465DF8047B704780B483B000AF7860B4
:104090000B46FB70FB78002B06D07B68DB6843F097
:1040A00001027B68DA6005E07B68DB6823F00102CF
:1040B0007B68DA6000BF0C37BD465DF8047B704753
:1040C00080B483B000AF786039603B68C3F30B0203
:1040D0007B689A6000BF0C37BD465DF8047B704773
:1040E00080B500AF02210220FEF73AFC0321202018
:1040F000FEF736FC0220FFF79BFF2020FFF798FF1A
:1041000000BF80BD80B500AFFEF7C0FC00BF80BD22
:1041100080B582B000AF0346FB80FB881846FEF7EF
:10412000ADF800BF0837BD4680BD80B485B000AF94
:10413000F860B9601346FB71FB68BA68203253F827
:10414000223023F47062FB791B0203F4706342EAAD
:104150000301FB68BA68203243F8221000BF14370D
:10416000BD465DF8047B704780B500AFFEF700FDEB
:1041700000BF80BD08B5FEF761FDBDE80840FCF753
:1041800049B900F052B900F06AB9A8B14FF08053B4
:1041900040F80C3C50F8042C72B11368B3F1805F06
:1041A0000AD150F8083C516803330B4440F8083CEE
:1041B000936840F8043CEDE7704770B5C468A50704
:1041C00008D0B2F5007F11D0B2F5806F04D0B2F5FF
:1041D000807F0BD0012008E0012300F1240114436B
:1041E00001610160C361C460002070BD6FF07F4554
:1041F0005E1EAE42F3D3EDE7034610B59A071C46A8
:1042000015D1234654F8042BA2F1013121EA020111
:1042100011F0803FF5D0D1B299B112F47F4F0ED09A
:1042200012F47F0F14BF23460333013003E01A4614
:1042300012F8011B09B9181A10BD1346DEE7023344
:10424000F3E70133F1E7C36810B523F02002816979
:10425000C260826A044691420FD000F048F8E368D9
:1042600023F4405323F0100343F01003E360A36AE8
:10427000A3612369E362236010BD23F4804323F02C
:104280006003C360F8E770B50D4606461046144655
:1042900000F056F82B78722B17D0772B18D0612BA3
:1042A00023D1082348F2020215F8011F2B2912D04E
:1042B000622915D01B07E260666104D50222002145
:1042C0002046FEF74DFD204670BD00230122EBE79E
:1042D00004230222E8E742F0030243F00203E3E78B
:1042E00042F0040243F00103DEE70024EBE738B5B7
:1042F0000446C36805690168C26A23F40020E060CF
:1043000003F08200022802D04FF0FF3038BDDB03FB
:104310000CD5914238BF11468D4209D10023A360CC
:10432000E368E56223F480332560E3600020EDE775
:1043300022462846491BFEF7BDFC0028EED0E3E7E5
:10434000F0B5C5680446A90789B022D02A0718D459
:10435000D0E90467FEF7E6FC384600F099F82B0533
:1043600002D53046FFF711FF6FF3150515F1A54F84
:1043700007D120226846216A00F099F8684600F0CB
:104380000BF83C2200212046FFF7FDFE002009B07B
:10439000F0BD4FF0FF30FAE710B50446FFF72CFFF1
:1043A00001462046BDE8104000F07BB8C36870B5F8
:1043B00013F00306044611D09B0611D5856AFFF75A
:1043C00042FFE368204623F44053E360FFF78FFF8A
:1043D0000022064629462046FEF7C2FC304670BD44
:1043E000836905681D440369ED1AEAE7C30D0102FC
:1043F000D3F19E0210B541F0004103D421FA02F03E
:10440000002110BDD3F1BE0404D4524201FA02F0DF
:10441000E140F6E7FE2B02D9C0F316031BB9C00F2B
:1044200001380146EDE70020FBE740EA0103DB0726
:1044300003460CD40346043A22BF51F804CB43F898
:1044400004CBB2F10402F7D2043208BF7047013A3C
:1044500024BF11F801CB03F801CBF8D8704703460D
:1044600013F0030F0ED101F0FF0141EA012141EAEF
:104470000141043A24BF43F8041BB2F10402F9D20B
:1044800002F10402013A24BF03F8011BFAE7704766
:104490004FF0FF3070474FF0FF3070474FF0FF3064
:1044A00070474FF0FF3070474FF0FF3070474FF0CC
:1044B000FF307047104670474153534552542045D2
:1044C00052524F522022202573200A0066736C5FDF
:1044D000636C6F636B2E633A313937203A20736512
:1044E0006C5F6E616D65203C3D206B434C4F434BD0
:1044F0005F53656C4D61780066736C5F636C6F63CE
:104500006B2E633A323534203A206469765F6E61EF
:104510006D65203C3D206B434C4F434B5F446976B7
:104520004D61780066736C5F6461632E633A363662
:10453000203A20696E7374616E6365203C2041529D
:104540005241595F53495A4528735F646163426120
:10455000736573290000000066736C5F6461632EED
:10456000633A3831203A204E554C4C20213D20638F
:104570006F6E66696700000066736C5F65646D61ED
:104580002E683A373533203A206368616E6E656C69
:10459000203C202875696E7433325F742946534C71
:1045A0005F464541545552455F45444D415F494E34
:1045B0005354414E43455F4348414E4E454C6E284F
:1045C000626173652900000066736C5F65646D61EC
:1045D0002E683A383331203A206368616E6E656C1C
:1045E000203C202875696E7433325F742946534C21
:1045F0005F464541545552455F45444D415F494EE4
:104600005354414E43455F4348414E4E454C6E28FE
:10461000626173652900000066736C5F65646D619B
:104620002E633A3931203A20696E7374616E636586
:10463000203C2041525241595F53495A4528735FEB
:1046400065646D61426173657329000066736C5F18
:1046500065646D612E633A313637203A20636F6EA0
:1046600066696720213D204E554C4C0066736C5F97
:1046700065646D612E633A323732203A2063686197
:104680006E6E656C436F6E66696720213D204E55E6
:104690004C4C000066736C5F65646D612E633A3448
:1046A0003636203A206368616E6E656C203C2028A7
:1046B00075696E7433325F742946534C5F464541C9
:1046C000545552455F45444D415F494E5354414E08
:1046D00043455F4348414E4E454C6E2862617365C9
:1046E0002900000066736C5F65646D612E633A3467
:1046F0003637203A20636F6E66696720213D204E71
:10470000554C4C0066736C5F65646D612E633A3581
:104710003639203A2074636420213D204E554C4C9C
:104720000000000066736C5F65646D612E633A354E
:104730003730203A20282875696E7433325F742927
:10474000746364202620307831465529203D3D2071
:104750003055000066736C5F65646D612E633A319D
:10476000343830203A207463645265677320213DE9
:10477000204E554C4C00000066736C5F65646D61A3
:104780002E633A31353136203A2068616E646C65AB
:1047900020213D204E554C4C0000000066736C5F9C
:1047A00065646D612E633A31353138203A20636893
:1047B000616E6E656C203C202875696E7433325FC3
:1047C000742946534C5F464541545552455F454414
:1047D0004D415F494E5354414E43455F4348414E1E
:1047E0004E454C6E286261736529000066736C5FEC
:1047F00065646D612E633A31353935203A20686140
:104800006E646C6520213D204E554C4C000000002C
:1048100066736C5F65646D612E633A3235333120A7
:104820003A2068616E646C6520213D204E554C4CE9
:104830000000000066736C5F65646D612E633A3240
:10484000353936203A2068616E646C6520213D2040
:104850004E554C4C0000000066736C5F65646D61E2
:104860002E633A32363335203A20736761203E3D5D
:1048700020434F4E564552545F544F5F444D415F65
:1048800041444452455353282875696E7433325F4E
:10489000742968616E646C652D3E746364506F6F3B
:1048A0006C29000066736C5F6770696F2E633A3124
:1048B0003234203A20696E7374616E6365203C2047
:1048C00041525241595F53495A4528735F67706995
:1048D0006F4261736573290066736C5F6770696FFF
:1048E0002E633A313337203A20696E7374616E63F8
:1048F00065203C2041525241595F53495A45287323
:104900005F6770696F436C6F636B4E616D65290003
:1049100066736C5F6770696F2E633A323036203A87
:10492000204E554C4C20213D20636F6E6669670018
:1049300066736C5F6C70756172742E633A323331DA
:10494000203A20696E7374616E6365203C20415289
:104950005241595F53495A4528735F6C70756172B3
:10496000744261736573290066736C5F6C70756166
:1049700072742E633A333737203A204E554C4C2010
:10498000213D20636F6E66696700000066736C5F8F
:104990006C70756172742E633A333738203A203068
:1049A00055203C20636F6E6669672D3E62617564B9
:1049B000526174655F4270730000000066736C5F43
:1049C0006C70756172742E633A333739203A206304
:1049D0006F6E6669672D3E62617564526174655FD2
:1049E000427073203C3D202855494E5433325F4D70
:1049F0004158202F203332552900000066736C5F28
:104A00006C70756172742E633A333830203A2073BB
:104A10007263436C6F636B5F487A203C3D2028557E
:104A2000494E5433325F4D4158202F2032552900D2
:104A300066736C5F6C70756172742E633A333833D1
:104A4000203A202875696E74385F742946534C5F8C
:104A5000464541545552455F4C50554152545F466E
:104A600049464F5F53495A456E2862617365292054
:104A70003E20636F6E6669672D3E74784669666F87
:104A800057617465726D61726B00000066736C5FD4
:104A90006C70756172742E633A333834203A202872
:104AA00075696E74385F742946534C5F46454154AE
:104AB0005552455F4C50554152545F4649464F5FF1
:104AC00053495A456E286261736529203E20636F01
:104AD0006E6669672D3E72784669666F57617465C8
:104AE000726D61726B00000066736C5F6C70756153
:104AF00072742E633A353832203A2066616C7365E1
:104B0000203D3D20636F6E6669672D3E656E616274
:104B10006C6554785254530066736C5F6C707561A9
:104B200072742E633A31313737203A204E554C4C4F
:104B300020213D20646174610000000066736C5F99
:104B40006C70756172745F65646D612E633A38379D
:104B5000203A204E554C4C20213D20706172616DF1
:104B60000000000066736C5F6C70756172745F6545
:104B7000646D612E633A313133203A204E554C4CEE
:104B800020213D20706172616D00000066736C5FD2
:104B90006C70756172745F65646D612E633A313556
:104BA00036203A204E554C4C20213D2068616E64E1
:104BB0006C65000066736C5F6C70756172745F6524
:104BC000646D612E633A333634203A204E554C4C96
:104BD00020213D2068616E646C65000066736C5F27
:104BE0006C70756172745F65646D612E633A333603
:104BF00035203A204E554C4C20213D2068616E6492
:104C00006C652D3E727845646D6148616E646C65BB
:104C10000000000066736C5F6C70756172745F6594
:104C2000646D612E633A343530203A206C707561C2
:104C3000727445646D6148616E646C6520213D202D
:104C40004E554C4C0000000066736C5F72657365D6
:104C5000742E633A3632203A20626974506F7320A2
:104C60003C2033327500000066736C5F72657365BB
:104C7000742E633A3633203A20726567496E646554
:104C800078203C203375000066736C5F7370632E70
:104C9000633A313430203A20636F6E6669672021B1
:104CA0003D204E554C4C000066736C5F7370632E54
:104CB000633A383332203A206F7074696F6E202166
:104CC0003D204E554C4C000066736C5F6164617012
:104CD0007465725F6C70756172742E633A38303629
:104CE000203A204E554C4C20213D2068616E646C6A
:104CF0006500000066736C5F616461707465725F6B
:104D00006C70756172742E633A383037203A204ED9
:104D1000554C4C20213D20646174610066736C5FCA
:104D2000616461707465725F6C70756172742E631A
:104D30003A383038203A206C656E677468203E201F
:104D400030550000636C6F636B5F636F6E666967FD
:104D50002E633A31303634203A2066616C73650038
:104D6000443A5C4D43555870726573736F494445BE
:104D70005F32352E362E3133365C776F726B73703F
:104D80006163655C4D4358413137365F55617274DC
:104D9000446D6144656D6F5C647269766572732FF2
:104DA00066736C5F65646D612E683A373036203A01
:104DB000206368616E6E656C203C202875696E7496
:104DC00033325F742946534C5F4645415455524532
:104DD0005F45444D415F494E5354414E43455F4307
:104DE00048414E4E454C6E28626173652900FFFFB5
:104DF0000203040506070809002010400030104097
:104E0000004010400050104000601040040020009E
:104E100005002000060020000700200008002000F8
:104E200000F0094000000A4000100A4000200A403B
:104E300000300A401F20212223FFFFFF170000003F
:104E400018000000190000001A0000001B000000FC
:104E5000160010001700180019001A001B00160198
:104E600000F0094000000A4000100A4000200A40FB
:104E700000300A4000C201000000000000010000F4
:104E80000000000000000001010000000000000020
:104E90000100010000000000000000000000000010
:104EA00000001000000000000101FFFF03000000EF
:044EB0007200770015
:104EB4000024F400001BB700000101000000000002
:104EC40000000000000000000000000000000000DE
:104ED40000000000000000000000000000000000CE
:040000030000026196
:00000001FF
